{
  "_format": "hh-sol-artifact-1",
  "contractName": "DisputeResolution",
  "sourceName": "contracts/DisputeResolution.sol",
  "abi": [
    {
      "inputs": [
        {
          "internalType": "address",
          "name": "roleManagerAddress",
          "type": "address"
        },
        {
          "internalType": "address",
          "name": "landRegistryAddress",
          "type": "address"
        }
      ],
      "stateMutability": "nonpayable",
      "type": "constructor"
    },
    {
      "inputs": [
        {
          "internalType": "uint256",
          "name": "length",
          "type": "uint256"
        },
        {
          "internalType": "uint256",
          "name": "minimum",
          "type": "uint256"
        }
      ],
      "name": "DescriptionTooShort",
      "type": "error"
    },
    {
      "inputs": [
        {
          "internalType": "uint256",
          "name": "disputeId",
          "type": "uint256"
        }
      ],
      "name": "DisputeNotFound",
      "type": "error"
    },
    {
      "inputs": [
        {
          "internalType": "string",
          "name": "field",
          "type": "string"
        }
      ],
      "name": "EmptyString",
      "type": "error"
    },
    {
      "inputs": [],
      "name": "EnforcedPause",
      "type": "error"
    },
    {
      "inputs": [],
      "name": "ExpectedPause",
      "type": "error"
    },
    {
      "inputs": [
        {
          "internalType": "enum DisputeResolution.DisputeStatus",
          "name": "current",
          "type": "uint8"
        },
        {
          "internalType": "enum DisputeResolution.DisputeStatus",
          "name": "required",
          "type": "uint8"
        }
      ],
      "name": "InvalidDisputeStatus",
      "type": "error"
    },
    {
      "inputs": [
        {
          "internalType": "address",
          "name": "caller",
          "type": "address"
        },
        {
          "internalType": "string",
          "name": "requiredRole",
          "type": "string"
        }
      ],
      "name": "NotAuthorized",
      "type": "error"
    },
    {
      "inputs": [
        {
          "internalType": "address",
          "name": "owner",
          "type": "address"
        }
      ],
      "name": "OwnableInvalidOwner",
      "type": "error"
    },
    {
      "inputs": [
        {
          "internalType": "address",
          "name": "account",
          "type": "address"
        }
      ],
      "name": "OwnableUnauthorizedAccount",
      "type": "error"
    },
    {
      "inputs": [],
      "name": "ReentrancyGuardReentrantCall",
      "type": "error"
    },
    {
      "anonymous": false,
      "inputs": [
        {
          "indexed": true,
          "internalType": "uint256",
          "name": "disputeId",
          "type": "uint256"
        },
        {
          "indexed": true,
          "internalType": "string",
          "name": "parcelId",
          "type": "string"
        },
        {
          "indexed": false,
          "internalType": "string",
          "name": "claimantCNIC",
          "type": "string"
        },
        {
          "indexed": false,
          "internalType": "enum DisputeResolution.DisputeType",
          "name": "disputeType",
          "type": "uint8"
        },
        {
          "indexed": true,
          "internalType": "address",
          "name": "filedBy",
          "type": "address"
        },
        {
          "indexed": false,
          "internalType": "uint256",
          "name": "timestamp",
          "type": "uint256"
        }
      ],
      "name": "DisputeFiled",
      "type": "event"
    },
    {
      "anonymous": false,
      "inputs": [
        {
          "indexed": true,
          "internalType": "uint256",
          "name": "disputeId",
          "type": "uint256"
        },
        {
          "indexed": true,
          "internalType": "address",
          "name": "reviewedBy",
          "type": "address"
        },
        {
          "indexed": false,
          "internalType": "uint256",
          "name": "timestamp",
          "type": "uint256"
        }
      ],
      "name": "DisputeMarkedUnderReview",
      "type": "event"
    },
    {
      "anonymous": false,
      "inputs": [
        {
          "indexed": true,
          "internalType": "uint256",
          "name": "disputeId",
          "type": "uint256"
        },
        {
          "indexed": false,
          "internalType": "string",
          "name": "reason",
          "type": "string"
        },
        {
          "indexed": true,
          "internalType": "address",
          "name": "rejectedBy",
          "type": "address"
        },
        {
          "indexed": false,
          "internalType": "uint256",
          "name": "timestamp",
          "type": "uint256"
        }
      ],
      "name": "DisputeRejected",
      "type": "event"
    },
    {
      "anonymous": false,
      "inputs": [
        {
          "indexed": true,
          "internalType": "uint256",
          "name": "disputeId",
          "type": "uint256"
        },
        {
          "indexed": true,
          "internalType": "string",
          "name": "parcelId",
          "type": "string"
        },
        {
          "indexed": false,
          "internalType": "string",
          "name": "resolution",
          "type": "string"
        },
        {
          "indexed": true,
          "internalType": "address",
          "name": "resolvedBy",
          "type": "address"
        },
        {
          "indexed": false,
          "internalType": "uint256",
          "name": "timestamp",
          "type": "uint256"
        }
      ],
      "name": "DisputeResolved",
      "type": "event"
    },
    {
      "anonymous": false,
      "inputs": [
        {
          "indexed": true,
          "internalType": "address",
          "name": "previousOwner",
          "type": "address"
        },
        {
          "indexed": true,
          "internalType": "address",
          "name": "newOwner",
          "type": "address"
        }
      ],
      "name": "OwnershipTransferred",
      "type": "event"
    },
    {
      "anonymous": false,
      "inputs": [
        {
          "indexed": false,
          "internalType": "address",
          "name": "account",
          "type": "address"
        }
      ],
      "name": "Paused",
      "type": "event"
    },
    {
      "anonymous": false,
      "inputs": [
        {
          "indexed": false,
          "internalType": "address",
          "name": "account",
          "type": "address"
        }
      ],
      "name": "Unpaused",
      "type": "event"
    },
    {
      "inputs": [
        {
          "internalType": "uint256",
          "name": "",
          "type": "uint256"
        }
      ],
      "name": "allDisputeIds",
      "outputs": [
        {
          "internalType": "uint256",
          "name": "",
          "type": "uint256"
        }
      ],
      "stateMutability": "view",
      "type": "function"
    },
    {
      "inputs": [
        {
          "internalType": "string",
          "name": "parcelId",
          "type": "string"
        },
        {
          "internalType": "string",
          "name": "claimantCNIC",
          "type": "string"
        },
        {
          "internalType": "string",
          "name": "claimantName",
          "type": "string"
        },
        {
          "internalType": "string",
          "name": "claimantPhone",
          "type": "string"
        },
        {
          "internalType": "enum DisputeResolution.DisputeType",
          "name": "disputeType",
          "type": "uint8"
        },
        {
          "internalType": "string",
          "name": "description",
          "type": "string"
        },
        {
          "internalType": "string[]",
          "name": "evidenceHashes",
          "type": "string[]"
        },
        {
          "internalType": "string[]",
          "name": "evidenceTypes",
          "type": "string[]"
        }
      ],
      "name": "fileDispute",
      "outputs": [],
      "stateMutability": "nonpayable",
      "type": "function"
    },
    {
      "inputs": [],
      "name": "getAllDisputeIds",
      "outputs": [
        {
          "internalType": "uint256[]",
          "name": "",
          "type": "uint256[]"
        }
      ],
      "stateMutability": "view",
      "type": "function"
    },
    {
      "inputs": [
        {
          "internalType": "uint256",
          "name": "disputeId",
          "type": "uint256"
        }
      ],
      "name": "getDispute",
      "outputs": [
        {
          "components": [
            {
              "internalType": "uint256",
              "name": "disputeId",
              "type": "uint256"
            },
            {
              "internalType": "string",
              "name": "parcelId",
              "type": "string"
            },
            {
              "internalType": "string",
              "name": "claimantCNIC",
              "type": "string"
            },
            {
              "internalType": "string",
              "name": "claimantName",
              "type": "string"
            },
            {
              "internalType": "string",
              "name": "claimantPhone",
              "type": "string"
            },
            {
              "internalType": "enum DisputeResolution.DisputeType",
              "name": "disputeType",
              "type": "uint8"
            },
            {
              "internalType": "string",
              "name": "description",
              "type": "string"
            },
            {
              "internalType": "string[]",
              "name": "evidenceHashes",
              "type": "string[]"
            },
            {
              "internalType": "string[]",
              "name": "evidenceTypes",
              "type": "string[]"
            },
            {
              "internalType": "enum DisputeResolution.DisputeStatus",
              "name": "status",
              "type": "uint8"
            },
            {
              "internalType": "string",
              "name": "resolution",
              "type": "string"
            },
            {
              "internalType": "string",
              "name": "rejectionReason",
              "type": "string"
            },
            {
              "internalType": "address",
              "name": "filedByOfficer",
              "type": "address"
            },
            {
              "internalType": "address",
              "name": "reviewedBy",
              "type": "address"
            },
            {
              "internalType": "address",
              "name": "resolvedBy",
              "type": "address"
            },
            {
              "internalType": "uint256",
              "name": "filedAt",
              "type": "uint256"
            },
            {
              "internalType": "uint256",
              "name": "reviewedAt",
              "type": "uint256"
            },
            {
              "internalType": "uint256",
              "name": "resolvedAt",
              "type": "uint256"
            }
          ],
          "internalType": "struct DisputeResolution.Dispute",
          "name": "",
          "type": "tuple"
        }
      ],
      "stateMutability": "view",
      "type": "function"
    },
    {
      "inputs": [
        {
          "internalType": "string",
          "name": "parcelId",
          "type": "string"
        }
      ],
      "name": "getDisputesByParcel",
      "outputs": [
        {
          "internalType": "uint256[]",
          "name": "",
          "type": "uint256[]"
        }
      ],
      "stateMutability": "view",
      "type": "function"
    },
    {
      "inputs": [],
      "name": "getTotalDisputes",
      "outputs": [
        {
          "internalType": "uint256",
          "name": "",
          "type": "uint256"
        }
      ],
      "stateMutability": "view",
      "type": "function"
    },
    {
      "inputs": [],
      "name": "landRegistry",
      "outputs": [
        {
          "internalType": "contract LandRegistry",
          "name": "",
          "type": "address"
        }
      ],
      "stateMutability": "view",
      "type": "function"
    },
    {
      "inputs": [
        {
          "internalType": "uint256",
          "name": "disputeId",
          "type": "uint256"
        }
      ],
      "name": "markUnderReview",
      "outputs": [],
      "stateMutability": "nonpayable",
      "type": "function"
    },
    {
      "inputs": [],
      "name": "owner",
      "outputs": [
        {
          "internalType": "address",
          "name": "",
          "type": "address"
        }
      ],
      "stateMutability": "view",
      "type": "function"
    },
    {
      "inputs": [
        {
          "internalType": "string",
          "name": "",
          "type": "string"
        },
        {
          "internalType": "uint256",
          "name": "",
          "type": "uint256"
        }
      ],
      "name": "parcelDisputes",
      "outputs": [
        {
          "internalType": "uint256",
          "name": "",
          "type": "uint256"
        }
      ],
      "stateMutability": "view",
      "type": "function"
    },
    {
      "inputs": [],
      "name": "pause",
      "outputs": [],
      "stateMutability": "nonpayable",
      "type": "function"
    },
    {
      "inputs": [],
      "name": "paused",
      "outputs": [
        {
          "internalType": "bool",
          "name": "",
          "type": "bool"
        }
      ],
      "stateMutability": "view",
      "type": "function"
    },
    {
      "inputs": [
        {
          "internalType": "uint256",
          "name": "disputeId",
          "type": "uint256"
        },
        {
          "internalType": "string",
          "name": "reason",
          "type": "string"
        }
      ],
      "name": "rejectDispute",
      "outputs": [],
      "stateMutability": "nonpayable",
      "type": "function"
    },
    {
      "inputs": [],
      "name": "renounceOwnership",
      "outputs": [],
      "stateMutability": "nonpayable",
      "type": "function"
    },
    {
      "inputs": [
        {
          "internalType": "uint256",
          "name": "disputeId",
          "type": "uint256"
        },
        {
          "internalType": "string",
          "name": "resolution",
          "type": "string"
        }
      ],
      "name": "resolveDispute",
      "outputs": [],
      "stateMutability": "nonpayable",
      "type": "function"
    },
    {
      "inputs": [],
      "name": "roleManager",
      "outputs": [
        {
          "internalType": "contract RoleManager",
          "name": "",
          "type": "address"
        }
      ],
      "stateMutability": "view",
      "type": "function"
    },
    {
      "inputs": [],
      "name": "totalDisputes",
      "outputs": [
        {
          "internalType": "uint256",
          "name": "",
          "type": "uint256"
        }
      ],
      "stateMutability": "view",
      "type": "function"
    },
    {
      "inputs": [],
      "name": "totalRejected",
      "outputs": [
        {
          "internalType": "uint256",
          "name": "",
          "type": "uint256"
        }
      ],
      "stateMutability": "view",
      "type": "function"
    },
    {
      "inputs": [],
      "name": "totalResolved",
      "outputs": [
        {
          "internalType": "uint256",
          "name": "",
          "type": "uint256"
        }
      ],
      "stateMutability": "view",
      "type": "function"
    },
    {
      "inputs": [
        {
          "internalType": "address",
          "name": "newOwner",
          "type": "address"
        }
      ],
      "name": "transferOwnership",
      "outputs": [],
      "stateMutability": "nonpayable",
      "type": "function"
    },
    {
      "inputs": [],
      "name": "unpause",
      "outputs": [],
      "stateMutability": "nonpayable",
      "type": "function"
    }
  ],
  "bytecode": "0x608034620001a35762002ec790601f38839003908101601f19168201906001600160401b03821183831017620001a85780839160409586948552833981010312620001a3576200005d60206200005583620001be565b9201620001be565b9060016000556001549133156200018b576001600160a81b0319831633600881811b610100600160a81b0316929092176001558551946001600160a01b03948593909291901c83167f8be0079c531659141344cd1fd0a4f28419497f9722a3daafe3b4186f6b6457e0600080a31692831562000149575016908115620001055760018060a01b031990816002541617600255600354161760035551612cf39081620001d48239f35b825162461bcd60e51b815260206004820152601460248201527f696e76616c6964204c616e6452656769737472790000000000000000000000006044820152606490fd5b62461bcd60e51b815260206004820152601360248201527f696e76616c696420526f6c654d616e61676572000000000000000000000000006044820152606490fd5b8351631e4fbdf760e01b815260006004820152602490fd5b600080fd5b634e487b7160e01b600052604160045260246000fd5b51906001600160a01b0382168203620001a35756fe61018080604052600436101561001457600080fd5b60006101605260003560e01c908162435da51461280c57508063072e1840146127eb57806328834039146123f757806335761476146121fb5780633f4ba83a146121305780635c975abb1461210a578063715018a6146120a15780637a77fc671461201757806381a51a4314611f835780638456cb5914611e93578063845705d914611e42578063852d8c5d14610c045780638da5cb5b14610bd457806397fbc2fb14610af5578063bd4dc02414610ba8578063c213aca314610b16578063c5e4ccc414610af5578063cf51b45d146105af578063e3a96cbd146101d9578063f2fde38b146101375763f5e8e75f1461010c57600080fd5b3461013057610160518060031936011261012d576020600954604051908152f35b80fd5b6101605180fd5b34610130576020366003190112610130576004356001600160a01b038181169182810361013057610166612a9d565b82156101be5760018054610100600160a81b03198116600893841b610100600160a81b031617909155901c167f8be0079c531659141344cd1fd0a4f28419497f9722a3daafe3b4186f6b6457e0600080a36101605180f35b604051631e4fbdf760e01b8152610160516004820152602490fd5b34610130576020366003190112610130576040516101f6816128a8565b6101605181526060602082015260606040820152606080820152606060808201526101605160a0820152606060c0820152606060e08201526060610100820152610160516101208201526060610140820152606061016082015261016051610180820152610160516101a0820152610160516101c0820152610160516101e082015261016051610200820152610220610160519101526004356101605152600560205260406101605120604051906102ad826128a8565b805482526040516102cc816102c58160018601612bbc565b03826128df565b60208301526040516102e5816102c58160028601612bbc565b60408301526040516102fe816102c58160038601612bbc565b6060830152604051610317816102c58160048601612bbc565b608083015260ff60058201541660058110156105955760a0830152604051610346816102c58160068601612bbc565b60c083015261035760078201612c52565b60e083015261036860088201612c52565b61010083015260ff60098201541691600483101561059557601160209260409461012084015284516103a1816102c581600a8601612bbc565b61014084015284516103ba816102c581600b8601612bbc565b61016084015260018060a01b03600c8201541661018084015260018060a01b03600d820154166101a084015260018060a01b03600e820154166101c0840152600f8101546101e08401526010810154610200840152015461022082015261022061053661051e6104f26104da6104c361049b61048561046f6104598a6102408e519e8f9e8f9381855280518286015201519201526102608d01906129ec565b60408b01518c8203601f190160608e01526129ec565b60608a01518b8203601f190160808d01526129ec565b60808901518a8203601f190160a08c01526129ec565b6104ad60a089015160c08b0190612a11565b60c0880151898203601f190160e08b01526129ec565b60e0870151888203601f19016101008a0152612a34565b610100860151878203601f1901610120890152612a34565b610506610120860151610140880190612a90565b610140850151868203601f19016101608801526129ec565b610160840151858203601f19016101808701526129ec565b9160018060a01b03610180820151166101a085015260018060a01b036101a0820151166101c085015260018060a01b036101c0820151166101e08501526101e08101516102008501526102008101518285015201516102408301520390f35b634e487b7160e01b61016051526021600452602461016051fd5b34610130576105bd36612862565b906105c6612b99565b6105ce612b7b565b6002546040516311f0b33d60e31b8152336004820152602494602094909290916001600160a01b0391869082908990829086165afa9081156108d9576101605191610ac8575b5015610a955782610160515260058552600f60406101605120015415610a7d5761063f368386612900565b6040519061064c826128c4565b600a8252693932b9b7b63aba34b7b760b11b878301525115610a55575060148210610a01578261016051526005855261016051956040872090600982019283549360ff85169960048b10156109ea57506001998a81036109c5575060ff1994851660021790556001600160401b0385116109ad57600a83016106ce8154612b2a565b601f811161096e575b508561016051601f82116001146109085761016051916108fd575b50600019600388901b1c1916868b1b1790555b600e830180546001600160a01b0319163317905542601184015560095461072b90612b05565b600955888160035416930192803b15610130576040518080926259a16760e61b825260406004830152816107626044820189612bbc565b61016051888301526101605194859103925af180156108d9576108e7575b5060025416803b1561013057604051809263a5d8cded60e01b8252336004830152816101605180945af180156108d9576108c3575b5060405191610160519180546107ca81612b2a565b92818b1691821561088f575050600114610835575b5050817f2a1d79b6ef2663bea468a1fc4ab15fbc7db58e569d2a42a76ddda05d402e0077939261081f920390209460405192604084526040840191612ae4565b9442908201528033950390a46101605190815580f35b90915061016051526101605186888183205b84841061087d575050509082019050817f2a1d79b6ef2663bea468a1fc4ab15fbc7db58e569d2a42a76ddda05d402e00776107df565b80548487015201910190888891610847565b16855250508015150282019050817f2a1d79b6ef2663bea468a1fc4ab15fbc7db58e569d2a42a76ddda05d402e00776107df565b6108cc90612895565b6101605180156107b55780fd5b6040513d61016051823e3d90fd5b6108f090612895565b6101605180156107805780fd5b90508801358b6106f2565b828152610160518b812092505b8b8d8c601f198c16841061095b575050505087601f19811610610941575b50508986811b019055610705565b890135600019600389901b60f8161c191690558a80610933565b8401358555909301929182019101610915565b61099d908261016051528a6101605120601f890160051c8101918c8a106109a3575b601f0160051c0190612b64565b8a6106d7565b9091508190610990565b506101608051634e487b7160e01b9052604160045251fd5b6044908b856109e5604051936365f90bc360e01b85526004850190612a90565b820152fd5b634e487b7160e01b90526021600452610160518390fd5b60405162461bcd60e51b8152600481018690526027818801527f446973707574655265736f6c7574696f6e3a207265736f6c7574696f6e20746f6044820152661bc81cda1bdc9d60ca1b6064820152608490fd5b6040516318a996bb60e21b815260048101879052908190610a7990828a01906129ec565b0390fd5b604051634294e0f760e01b8152600481018490528690fd5b604080516350df61b360e01b815233600482015260248101919091526002604482015261444360f01b6064820152608490fd5b610ae89150863d8811610aee575b610ae081836128df565b810190612acc565b87610614565b503d610ad6565b3461013057610160518060031936011261012d576020600854604051908152f35b3461013057610160518060031936011261012d576040518060075491828152602080910192600761016051527fa66cc928b5edb82af9bd49922954155ab7b0942694bea4ce44661d9a8736c6889161016051905b828210610b9157610b8d85610b81818903826128df565b60405191829182612981565b0390f35b835486529485019460019384019390910190610b6a565b3461013057610160518060031936011261012d576003546040516001600160a01b039091168152602090f35b3461013057610160518060031936011261012d5760015460405160089190911c6001600160a01b03168152602090f35b3461013057610100366003190112610130576004356001600160401b03811161013057610c35903690600401612835565b60805260c0526024356001600160401b03811161013057610c5a903690600401612835565b6101005260e0526044356001600160401b03811161013057610c80903690600401612835565b6064356001600160401b03811161013057610c9f903690600401612835565b600560843510156101305760a4356001600160401b03811161013057610cc9903690600401612835565b916001600160401b0360c4351161013057610ce93660c4356004016129bc565b9490956001600160401b0360e4351161013057610d0b3660e4356004016129bc565b989061014052610d19612b99565b610d21612b7b565b600254604051632471f3a760e21b8152336004820152906001600160a01b0316602082602481845afa9182156108d9576101605192611e21575b508115611dcb575b8115611d75575b8115611d1d575b5015611cc457610d863660805160c051612900565b60405190610d93826128c4565b60088252671c185c98d95b125960c21b60208301525115611c9f5750610dbf366101005160e051612900565b60405190610dcc826128c4565b600c82526b636c61696d616e74434e494360a01b60208301525115611c9f5750610df7368383612900565b60405190610e04826128c4565b600c82526b636c61696d616e744e616d6560a01b60208301525115611c9f5750610e2f368787612900565b60405190610e3c826128c4565b600b82526a3232b9b1b934b83a34b7b760a91b60208301525115611c9f575060018060a01b03600354166020604051809263731cd03760e11b82528260048301528180610e916024820160805160c051612ae4565b03915afa9081156108d9576101605191611c80575b5015611c2a5760328610611c0a57600d6101005103611bb357888703611b5a57610ed1600454612b05565b8061012052806004556101605152600560205261016051604081208060a0526101205190556001600160401b0360805111611b425750610f16600160a0510154612b2a565b601f8111611b04575b5061016051601f60805111600114611a8b57610160516080519182611a7e575b508160011b916000199060031b1c191617600160a05101555b6001600160401b03610100511161159057610f78600260a0510154612b2a565b601f8111611a3f575b5061016051601f61010051116001146119c557610160516101005191826119b8575b508160011b916000199060031b1c191617600260a05101555b6001600160401b038211611590578190610fdb600360a0510154612b2a565b601f811161197d575b506101605190601f83116001146119095761016051926118fe575b50508160011b916000199060031b1c191617600360a05101555b6001600160401b038211611590578190611038600460a0510154612b2a565b601f81116118c3575b506101605190601f831160011461184f576101605192611844575b50508160011b916000199060031b1c191617600460a05101555b600560a0510160ff1981541660ff608435161790556001600160401b0382116115905781906110aa600660a0510154612b2a565b601f8111611809575b506101605190601f831160011461179557610160519261178a575b50508160011b916000199060031b1c191617600660a05101555b600160401b811161159057600760a0510180549082815581831061170d575b505081600760a05101610160515261016051906020822091935b8385106115aa5785600160401b811161159057600860a05101805490828155818310611513575b50506101405190600860a05101610160515261016051916020832092905b8282106113ae5760a05160098101805460ff19169055600c810180546001600160a01b0319163317905542600f9091015560405160805160c0518237602081608051810160068152030190208054600160401b811015611398576111cf91600182018155612969565b9080549160031b610120519283821b91600019901b1916179055600754600160401b8110156113985760018101806007558110156113825760076000527fa66cc928b5edb82af9bd49922954155ab7b0942694bea4ce44661d9a8736c688015561123a600854612b05565b6008556003546001600160a01b0316803b15610130576040518080926259a16760e61b825260406004830152816112796044820160805160c051612ae4565b600160248301526101605194859103925af180156108d95761136c575b506002546001600160a01b0316803b15610130576040519063a5d8cded60e01b8252336004830152816024816101605180945af180156108d957611356575b60405160805160c0518237806080518101610160518152039020604051906060825261130a606083016101005160e051612ae4565b61131960208401608435612a11565b4260408401527fea73e7c60079ccdeb4777a94ea026f7e3840428c99495b4d172389cd1f3e5d5733938061012051930390a4610160516001815580f35b61135f90612895565b6101605180156112d55780fd5b61137590612895565b6101605180156112965780fd5b634e487b7160e01b600052603260045260246000fd5b634e487b7160e01b600052604160045260246000fd5b61014051601e198136030182351215610130576001600160401b038235820135116101305781350180353603602090910113610130576113ee8454612b2a565b601f81116114d5575b5061016051601f82356101405101351160011461145757602060019283926101605182356101405101918235928361144a575b5050600019600383901b1c191690841b1787555b01940191019092611166565b859250010135898061142a565b8481526101605160208120909183356101405101925b8335601f191681106114bb5750926001836020938296839635601f198435161061149f575b505035811b01875561143e565b8201850135600019833560031b60f8161c191690558980611492565b90916020600181928286880101358155019301910161146d565b61150d90856101605152602061016051208335610140510135916020601f840160051c830193106109a357601f0160051c0190612b64565b846113f7565b610160515260206101605120908282015b81830181106115335750611148565b8061154060019254612b2a565b8061154d575b5001611524565b601f811183146115635750600081555b85611546565b8161016051526101605190611586601f60208420920160051c8201858301612b64565b600083555561155d565b634e487b7160e01b61016051526041600452602461016051fd5b8035601e1983360301811215610130576001600160401b0381840135116101305780830135360360208285010113610130576115e68454612b2a565b601f81116116d1575b5061016051601f828501351160011461164c57600192839260209261016051908288013561163d575b5081870135851b916000199088013560031b1c19161786555b01930194019391611121565b8491508288010101358b611618565b848152610160519060208220915b85840135601f191681106116b557506001938493602093919285929088830135601f19811610611694575b5050860135811b018655611631565b8560001960f8858c013560031b161c1991848b010101351690558b80611685565b90916020600181928286888b010101358155019301910161165a565b6117079085610160515260206101605120601f848701350160051c810191602085880135106109a357601f0160051c0190612b64565b876115ef565b610160515260206101605120908282015b818301811061172d5750611107565b8061173a60019254612b2a565b80611747575b500161171e565b601f8111831461175d5750600081555b87611740565b8161016051526101605190611780601f60208420920160051c8201858301612b64565b6000835555611757565b0135905085806110ce565b60a05160060182526101605160208120909450915b601f19841685106117f1576001945083601f198116106117d7575b505050811b01600660a05101556110e8565b0135600019600384901b60f8161c191690558580806117c5565b818101358355602094850194600190930192016117aa565b61183e90600660a05101610160515260206101605120601f850160051c810191602086106109a357601f0160051c0190612b64565b866110b3565b01359050878061105c565b60a05160040182526101605160208120909450915b601f19841685106118ab576001945083601f19811610611891575b505050811b01600460a0510155611076565b0135600019600384901b60f8161c1916905587808061187f565b81810135835560209485019460019093019201611864565b6118f890600460a05101610160515260206101605120601f850160051c810191602086106109a357601f0160051c0190612b64565b88611041565b013590508980610fff565b60a05160030182526101605160208120909450915b601f1984168510611965576001945083601f1981161061194b575b505050811b01600360a0510155611019565b0135600019600384901b60f8161c19169055898080611939565b8181013583556020948501946001909301920161191e565b6119b290600360a05101610160515260206101605120601f850160051c810191602086106109a357601f0160051c0190612b64565b8a610fe4565b905060e05101358b610fa3565b600260a051018152610160519060208220610100519160e051905b601f1984168510611a27576001945083601f19811610611a0d575b505050811b01600260a0510155610fbc565b0135600019600384901b60f8161c191690558b80806119fb565b818101358355602094850194600190930192016119e0565b611a7890600260a0510161016051526020610160512061010051916020601f840160051c830193106109a357601f0160051c0190612b64565b89610f81565b905060c05101358b610f3f565b600160a0510181526101605190602082206080519160c051905b601f1984168510611aec576001945083601f19811610611ad2575b505050811b01600160a0510155610f58565b0135600019600384901b60f8161c191690558b8080611ac0565b81810135835560209485019460019093019201611aa5565b611b3c90600160a05101610160515260206101605120608051916020601f840160051c830193106109a357601f0160051c0190612b64565b89610f1f565b634e487b7160e01b9052604160045261016051602490fd5b60405162461bcd60e51b815260206004820152602b60248201527f446973707574655265736f6c7574696f6e3a2065766964656e6365206172726160448201526a0f2e640dad2e6dac2e8c6d60ab1b6064820152608490fd5b60405162461bcd60e51b815260206004820152602960248201527f446973707574655265736f6c7574696f6e3a20434e4943206d7573742062652060448201526831332064696769747360b81b6064820152608490fd5b604051630233a7e960e51b81526004810187905260326024820152604490fd5b60405162461bcd60e51b815260206004820152602860248201527f446973707574655265736f6c7574696f6e3a2070617263656c20646f6573206e6044820152671bdd08195e1a5cdd60c21b6064820152608490fd5b611c99915060203d602011610aee57610ae081836128df565b8a610ea6565b6040516318a996bb60e21b815260206004820152908190610a799060248301906129ec565b60405162461bcd60e51b815260206004820152602b60248201527f446973707574655265736f6c7574696f6e3a2063616c6c6572206973206e6f7460448201526a1030b71037b33334b1b2b960a91b6064820152608490fd5b604051630935e01b60e21b81523360048201529150602090829060249082905afa9081156108d9576101605191611d56575b508a610d71565b611d6f915060203d602011610aee57610ae081836128df565b8a611d4f565b6040516311f0b33d60e31b8152336004820152909150602081602481855afa9081156108d9576101605191611dac575b5090610d6a565b611dc5915060203d602011610aee57610ae081836128df565b8b611da5565b60405163a79bb24f60e01b8152336004820152909150602081602481855afa9081156108d9576101605191611e02575b5090610d63565b611e1b915060203d602011610aee57610ae081836128df565b8b611dfb565b611e3b91925060203d602011610aee57610ae081836128df565b908b610d5b565b34610130576020366003190112610130576004356007548110156101305760209060076000527fa66cc928b5edb82af9bd49922954155ab7b0942694bea4ce44661d9a8736c6880154604051908152f35b3461013057610160518060031936011261012d57600254604051630935e01b60e21b815233600482015290602090829060249082906001600160a01b03165afa9081156108d9576101605191611f65575b5015611f2f57611ef2612b7b565b600160ff19815416176001557f62e78cea01bee320cd4e420270b5ea74000d11b0c9f74754ebdbfc544b05a2586020604051338152a16101605180f35b604080516350df61b360e01b81523360048201526024810191909152600560448201526420a226a4a760d91b6064820152608490fd5b611f7d915060203d8111610aee57610ae081836128df565b81611ee4565b3461013057602080600319360112610130576004356001600160401b03811161013057611fb582913690600401612835565b9190826040519384928337810160068152030190209060405190818184549182815201936101605152610160519180832092905b82821061200057610b8d85610b81818903826128df565b835486529485019460019384019390910190611fe9565b34610130576040366003190112610130576004356001600160401b038111610130573660238201121561013057612058903690602481600401359101612900565b6120746020602435928160405193828580945193849201612946565b8101600681520301902080548210156101305760209161209391612969565b90546040519160031b1c8152f35b3461013057610160518060031936011261012d576120bd612a9d565b60018054610100600160a81b0319811690915560009060081c6001600160a01b03167f8be0079c531659141344cd1fd0a4f28419497f9722a3daafe3b4186f6b6457e08280a36101605180f35b3461013057610160518060031936011261012d57602060ff600154166040519015158152f35b3461013057610160518060031936011261012d57600254604051630935e01b60e21b815233600482015290602090829060249082906001600160a01b03165afa9081156108d95761016051916121dd575b5015611f2f5760015460ff8116156121cb5760ff19166001557f5db9ee0a495bf2e6ff9c91a7834c1ba4fdd244a5e8aa4e537bd38aeae4b073aa6020604051338152a16101605180f35b604051638dfc202b60e01b8152600490fd5b6121f5915060203d8111610aee57610ae081836128df565b81612181565b346101305760208060031936011261013057600435612218612b99565b612220612b7b565b60025460405163a79bb24f60e01b81523360048201526024916001600160a01b039190859082908590829086165afa9081156108d95761016051916123da575b50156123a45782610160515260058452600f6040610160512001541561238d5782610160515260058452610160516040812090600982019081549060ff8216906004821015612376575080612355575060ff19166001179055600d810180546001600160a01b031916331790554260109091015560025416803b1561013057604051809263a5d8cded60e01b8252336004830152816101605180945af180156108d95761233f575b507f8f5d801481924985bbcb5d7bea30ff288f916e1e66f3877bfc8bd3411b2a1ac0604051924284523393a3610160516001815580f35b61234890612895565b6101605180156123085780fd5b6044906000876109e5604051936365f90bc360e01b85526004850190612a90565b634e487b7160e01b90526021600452610160518690fd5b509060405190634294e0f760e01b82526004820152fd5b60848260408051916350df61b360e01b835233600484015282015260096044820152682a22a429a4a62220a960b91b6064820152fd5b6123f19150853d8711610aee57610ae081836128df565b85612260565b346101305761240536612862565b612410929192612b99565b612418612b7b565b6002546040516311f0b33d60e31b8152336004820152602094916024916001600160a01b0391879082908590829086165afa9081156108d95761016051916127ce575b5015610a955784610160515260058652600f604061016051200154156127b757612486368585612900565b60405190612493826128c4565b60068252653932b0b9b7b760d11b888301525115612793575084610160515260058652610160516040812090600982019081549060ff821690600482101561237657508015908115612788575b501561272a5760ff19166003179055600b81016001600160401b0386116127115761250b8154612b2a565b601f81116126dd575b508561016051601f821160011461267657610160519161266b575b508660011b906000198860031b1c19161790555b600e810180546001600160a01b03191633179055426011820155600a5461256990612b05565b600a55816003541690813b15610130576125a3906040519283809381936259a16760e61b8352604060048401526001604484019101612bbc565b61016051888301526101605194859103925af180156108d95761265c575b5060025416803b1561013057604051809263a5d8cded60e01b8252336004830152816101605180945af180156108d957612646575b509061262f7f5931bf9055884f08cd5572655e884a29d10a07f588200f865688b2699551b1029260405192604084526040840191612ae4565b9342908201528033940390a3610160516001815580f35b61264f90612895565b6101605180156125f65780fd5b61266590612895565b866125c1565b90508501358961252f565b828152610160518a812092508890601f198216905b8c8282106126c4575050106126aa575b5050600186811b019055612543565b860135600019600389901b60f8161c19169055888061269b565b8a8501358655600190950194938401938b93500161268b565b61270b90826101605152896101605120601f890160051c8101918b8a106109a357601f0160051c0190612b64565b88612514565b83634e487b7160e01b6101605152604160045261016051fd5b60405162461bcd60e51b8152600481018a90526031818701527f446973707574655265736f6c7574696f6e3a2063616e6e6f742072656a656374604482015270207265736f6c766564206469737075746560781b6064820152608490fd5b60019150148a6124e0565b6040516318a996bb60e21b815260048101889052908190610a7990828601906129ec565b50604051634294e0f760e01b815260048101859052fd5b6127e59150873d8911610aee57610ae081836128df565b8761245b565b3461013057610160518060031936011261012d576020600a54604051908152f35b34612830576000366003190112612830576002546001600160a01b03168152602090f35b600080fd5b9181601f84011215612830578235916001600160401b038311612830576020838186019501011161283057565b9060406003198301126128305760043591602435906001600160401b0382116128305761289191600401612835565b9091565b6001600160401b03811161139857604052565b61024081019081106001600160401b0382111761139857604052565b604081019081106001600160401b0382111761139857604052565b90601f801991011681019081106001600160401b0382111761139857604052565b9291926001600160401b0382116113985760405191612929601f8201601f1916602001846128df565b829481845281830111612830578281602093846000960137010152565b60005b8381106129595750506000910152565b8181015183820152602001612949565b80548210156113825760005260206000200190600090565b6020908160408183019282815285518094520193019160005b8281106129a8575050505090565b83518552938101939281019260010161299a565b9181601f84011215612830578235916001600160401b038311612830576020808501948460051b01011161283057565b90602091612a0581518092818552858086019101612946565b601f01601f1916010190565b906005821015612a1e5752565b634e487b7160e01b600052602160045260246000fd5b908082519081815260208091019281808460051b8301019501936000915b848310612a625750505050505090565b9091929394958480612a80600193601f198682030187528a516129ec565b9801930193019194939290612a52565b906004821015612a1e5752565b60015460081c6001600160a01b03163303612ab457565b60405163118cdaa760e01b8152336004820152602490fd5b90816020910312612830575180151581036128305790565b908060209392818452848401376000828201840152601f01601f1916010190565b6000198114612b145760010190565b634e487b7160e01b600052601160045260246000fd5b90600182811c92168015612b5a575b6020831014612b4457565b634e487b7160e01b600052602260045260246000fd5b91607f1691612b39565b818110612b6f575050565b60008155600101612b64565b60ff60015416612b8757565b60405163d93c066560e01b8152600490fd5b600260005414612baa576002600055565b604051633ee5aeb560e01b8152600490fd5b9060009291805491612bcd83612b2a565b918282526001938481169081600014612c2f5750600114612bef575b50505050565b90919394506000526020928360002092846000945b838610612c1b575050505001019038808080612be9565b805485870183015294019385908201612c04565b9294505050602093945060ff191683830152151560051b01019038808080612be9565b9081546001600160401b03811161139857604092835193602090612c7b828560051b01876128df565b8386526000928352818320908287015b858510612c9a57505050505050565b60018481928451612caf816102c5818a612bbc565b815201930194019391612c8b56fea26469706673582212209d4fd289364cfe4532d723c356cf4cbe43542a8cddc6a1415c12853904c7b58364736f6c63430008140033",
  "linkReferences": {},
  "deployedLinkReferences": {}
}