{
  "_format": "hh-sol-artifact-1",
  "contractName": "LandToken",
  "sourceName": "contracts/LandToken.sol",
  "abi": [
    {
      "inputs": [
        {
          "internalType": "address",
          "name": "roleManagerAddress",
          "type": "address"
        }
      ],
      "stateMutability": "nonpayable",
      "type": "constructor"
    },
    {
      "inputs": [
        {
          "internalType": "address",
          "name": "sender",
          "type": "address"
        },
        {
          "internalType": "uint256",
          "name": "tokenId",
          "type": "uint256"
        },
        {
          "internalType": "address",
          "name": "owner",
          "type": "address"
        }
      ],
      "name": "ERC721IncorrectOwner",
      "type": "error"
    },
    {
      "inputs": [
        {
          "internalType": "address",
          "name": "operator",
          "type": "address"
        },
        {
          "internalType": "uint256",
          "name": "tokenId",
          "type": "uint256"
        }
      ],
      "name": "ERC721InsufficientApproval",
      "type": "error"
    },
    {
      "inputs": [
        {
          "internalType": "address",
          "name": "approver",
          "type": "address"
        }
      ],
      "name": "ERC721InvalidApprover",
      "type": "error"
    },
    {
      "inputs": [
        {
          "internalType": "address",
          "name": "operator",
          "type": "address"
        }
      ],
      "name": "ERC721InvalidOperator",
      "type": "error"
    },
    {
      "inputs": [
        {
          "internalType": "address",
          "name": "owner",
          "type": "address"
        }
      ],
      "name": "ERC721InvalidOwner",
      "type": "error"
    },
    {
      "inputs": [
        {
          "internalType": "address",
          "name": "receiver",
          "type": "address"
        }
      ],
      "name": "ERC721InvalidReceiver",
      "type": "error"
    },
    {
      "inputs": [
        {
          "internalType": "address",
          "name": "sender",
          "type": "address"
        }
      ],
      "name": "ERC721InvalidSender",
      "type": "error"
    },
    {
      "inputs": [
        {
          "internalType": "uint256",
          "name": "tokenId",
          "type": "uint256"
        }
      ],
      "name": "ERC721NonexistentToken",
      "type": "error"
    },
    {
      "inputs": [
        {
          "internalType": "string",
          "name": "field",
          "type": "string"
        }
      ],
      "name": "EmptyString",
      "type": "error"
    },
    {
      "inputs": [],
      "name": "EnforcedPause",
      "type": "error"
    },
    {
      "inputs": [],
      "name": "ExpectedPause",
      "type": "error"
    },
    {
      "inputs": [
        {
          "internalType": "address",
          "name": "caller",
          "type": "address"
        }
      ],
      "name": "NotAuthorized",
      "type": "error"
    },
    {
      "inputs": [
        {
          "internalType": "address",
          "name": "owner",
          "type": "address"
        }
      ],
      "name": "OwnableInvalidOwner",
      "type": "error"
    },
    {
      "inputs": [
        {
          "internalType": "address",
          "name": "account",
          "type": "address"
        }
      ],
      "name": "OwnableUnauthorizedAccount",
      "type": "error"
    },
    {
      "inputs": [],
      "name": "ReentrancyGuardReentrantCall",
      "type": "error"
    },
    {
      "inputs": [
        {
          "internalType": "string",
          "name": "parcelId",
          "type": "string"
        }
      ],
      "name": "TokenAlreadyExists",
      "type": "error"
    },
    {
      "inputs": [
        {
          "internalType": "string",
          "name": "parcelId",
          "type": "string"
        }
      ],
      "name": "TokenNotFound",
      "type": "error"
    },
    {
      "anonymous": false,
      "inputs": [
        {
          "indexed": true,
          "internalType": "address",
          "name": "owner",
          "type": "address"
        },
        {
          "indexed": true,
          "internalType": "address",
          "name": "approved",
          "type": "address"
        },
        {
          "indexed": true,
          "internalType": "uint256",
          "name": "tokenId",
          "type": "uint256"
        }
      ],
      "name": "Approval",
      "type": "event"
    },
    {
      "anonymous": false,
      "inputs": [
        {
          "indexed": true,
          "internalType": "address",
          "name": "owner",
          "type": "address"
        },
        {
          "indexed": true,
          "internalType": "address",
          "name": "operator",
          "type": "address"
        },
        {
          "indexed": false,
          "internalType": "bool",
          "name": "approved",
          "type": "bool"
        }
      ],
      "name": "ApprovalForAll",
      "type": "event"
    },
    {
      "anonymous": false,
      "inputs": [
        {
          "indexed": false,
          "internalType": "uint256",
          "name": "_fromTokenId",
          "type": "uint256"
        },
        {
          "indexed": false,
          "internalType": "uint256",
          "name": "_toTokenId",
          "type": "uint256"
        }
      ],
      "name": "BatchMetadataUpdate",
      "type": "event"
    },
    {
      "anonymous": false,
      "inputs": [
        {
          "indexed": true,
          "internalType": "uint256",
          "name": "tokenId",
          "type": "uint256"
        },
        {
          "indexed": true,
          "internalType": "string",
          "name": "parcelId",
          "type": "string"
        },
        {
          "indexed": false,
          "internalType": "uint256",
          "name": "timestamp",
          "type": "uint256"
        }
      ],
      "name": "LandTokenBurned",
      "type": "event"
    },
    {
      "anonymous": false,
      "inputs": [
        {
          "indexed": true,
          "internalType": "uint256",
          "name": "tokenId",
          "type": "uint256"
        },
        {
          "indexed": true,
          "internalType": "string",
          "name": "parcelId",
          "type": "string"
        },
        {
          "indexed": false,
          "internalType": "string",
          "name": "ownerCNIC",
          "type": "string"
        },
        {
          "indexed": false,
          "internalType": "string",
          "name": "ownerName",
          "type": "string"
        },
        {
          "indexed": true,
          "internalType": "address",
          "name": "mintedBy",
          "type": "address"
        },
        {
          "indexed": false,
          "internalType": "uint256",
          "name": "timestamp",
          "type": "uint256"
        }
      ],
      "name": "LandTokenMinted",
      "type": "event"
    },
    {
      "anonymous": false,
      "inputs": [
        {
          "indexed": true,
          "internalType": "uint256",
          "name": "tokenId",
          "type": "uint256"
        },
        {
          "indexed": true,
          "internalType": "string",
          "name": "parcelId",
          "type": "string"
        },
        {
          "indexed": false,
          "internalType": "address",
          "name": "from",
          "type": "address"
        },
        {
          "indexed": false,
          "internalType": "address",
          "name": "to",
          "type": "address"
        },
        {
          "indexed": false,
          "internalType": "uint256",
          "name": "timestamp",
          "type": "uint256"
        }
      ],
      "name": "LandTokenTransferred",
      "type": "event"
    },
    {
      "anonymous": false,
      "inputs": [
        {
          "indexed": false,
          "internalType": "uint256",
          "name": "_tokenId",
          "type": "uint256"
        }
      ],
      "name": "MetadataUpdate",
      "type": "event"
    },
    {
      "anonymous": false,
      "inputs": [
        {
          "indexed": true,
          "internalType": "address",
          "name": "previousOwner",
          "type": "address"
        },
        {
          "indexed": true,
          "internalType": "address",
          "name": "newOwner",
          "type": "address"
        }
      ],
      "name": "OwnershipTransferred",
      "type": "event"
    },
    {
      "anonymous": false,
      "inputs": [
        {
          "indexed": false,
          "internalType": "address",
          "name": "account",
          "type": "address"
        }
      ],
      "name": "Paused",
      "type": "event"
    },
    {
      "anonymous": false,
      "inputs": [
        {
          "indexed": true,
          "internalType": "address",
          "name": "from",
          "type": "address"
        },
        {
          "indexed": true,
          "internalType": "address",
          "name": "to",
          "type": "address"
        },
        {
          "indexed": true,
          "internalType": "uint256",
          "name": "tokenId",
          "type": "uint256"
        }
      ],
      "name": "Transfer",
      "type": "event"
    },
    {
      "anonymous": false,
      "inputs": [
        {
          "indexed": false,
          "internalType": "address",
          "name": "account",
          "type": "address"
        }
      ],
      "name": "Unpaused",
      "type": "event"
    },
    {
      "inputs": [
        {
          "internalType": "address",
          "name": "to",
          "type": "address"
        },
        {
          "internalType": "uint256",
          "name": "tokenId",
          "type": "uint256"
        }
      ],
      "name": "approve",
      "outputs": [],
      "stateMutability": "nonpayable",
      "type": "function"
    },
    {
      "inputs": [
        {
          "internalType": "address",
          "name": "owner",
          "type": "address"
        }
      ],
      "name": "balanceOf",
      "outputs": [
        {
          "internalType": "uint256",
          "name": "",
          "type": "uint256"
        }
      ],
      "stateMutability": "view",
      "type": "function"
    },
    {
      "inputs": [
        {
          "internalType": "uint256",
          "name": "tokenId",
          "type": "uint256"
        }
      ],
      "name": "burn",
      "outputs": [],
      "stateMutability": "nonpayable",
      "type": "function"
    },
    {
      "inputs": [
        {
          "internalType": "uint256",
          "name": "tokenId",
          "type": "uint256"
        }
      ],
      "name": "getApproved",
      "outputs": [
        {
          "internalType": "address",
          "name": "",
          "type": "address"
        }
      ],
      "stateMutability": "view",
      "type": "function"
    },
    {
      "inputs": [
        {
          "internalType": "uint256",
          "name": "tokenId",
          "type": "uint256"
        }
      ],
      "name": "getMetadata",
      "outputs": [
        {
          "components": [
            {
              "internalType": "string",
              "name": "parcelId",
              "type": "string"
            },
            {
              "internalType": "string",
              "name": "ownerCNIC",
              "type": "string"
            },
            {
              "internalType": "string",
              "name": "ownerName",
              "type": "string"
            },
            {
              "internalType": "string",
              "name": "district",
              "type": "string"
            },
            {
              "internalType": "uint256",
              "name": "areaSqFt",
              "type": "uint256"
            },
            {
              "internalType": "string",
              "name": "landType",
              "type": "string"
            },
            {
              "internalType": "uint256",
              "name": "mintedAt",
              "type": "uint256"
            },
            {
              "internalType": "address",
              "name": "mintedBy",
              "type": "address"
            }
          ],
          "internalType": "struct LandToken.TokenMetadata",
          "name": "",
          "type": "tuple"
        }
      ],
      "stateMutability": "view",
      "type": "function"
    },
    {
      "inputs": [
        {
          "internalType": "string",
          "name": "parcelId",
          "type": "string"
        }
      ],
      "name": "getTokenByParcel",
      "outputs": [
        {
          "internalType": "uint256",
          "name": "",
          "type": "uint256"
        }
      ],
      "stateMutability": "view",
      "type": "function"
    },
    {
      "inputs": [
        {
          "internalType": "string",
          "name": "",
          "type": "string"
        }
      ],
      "name": "hasToken",
      "outputs": [
        {
          "internalType": "bool",
          "name": "",
          "type": "bool"
        }
      ],
      "stateMutability": "view",
      "type": "function"
    },
    {
      "inputs": [
        {
          "internalType": "address",
          "name": "owner",
          "type": "address"
        },
        {
          "internalType": "address",
          "name": "operator",
          "type": "address"
        }
      ],
      "name": "isApprovedForAll",
      "outputs": [
        {
          "internalType": "bool",
          "name": "",
          "type": "bool"
        }
      ],
      "stateMutability": "view",
      "type": "function"
    },
    {
      "inputs": [
        {
          "internalType": "address",
          "name": "toWallet",
          "type": "address"
        },
        {
          "internalType": "string",
          "name": "parcelId",
          "type": "string"
        },
        {
          "internalType": "string",
          "name": "ownerCNIC",
          "type": "string"
        },
        {
          "internalType": "string",
          "name": "ownerName",
          "type": "string"
        },
        {
          "internalType": "string",
          "name": "district",
          "type": "string"
        },
        {
          "internalType": "uint256",
          "name": "areaSqFt",
          "type": "uint256"
        },
        {
          "internalType": "string",
          "name": "landType",
          "type": "string"
        },
        {
          "internalType": "string",
          "name": "tokenURI_",
          "type": "string"
        }
      ],
      "name": "mintLandCertificate",
      "outputs": [
        {
          "internalType": "uint256",
          "name": "",
          "type": "uint256"
        }
      ],
      "stateMutability": "nonpayable",
      "type": "function"
    },
    {
      "inputs": [],
      "name": "name",
      "outputs": [
        {
          "internalType": "string",
          "name": "",
          "type": "string"
        }
      ],
      "stateMutability": "view",
      "type": "function"
    },
    {
      "inputs": [],
      "name": "owner",
      "outputs": [
        {
          "internalType": "address",
          "name": "",
          "type": "address"
        }
      ],
      "stateMutability": "view",
      "type": "function"
    },
    {
      "inputs": [
        {
          "internalType": "uint256",
          "name": "tokenId",
          "type": "uint256"
        }
      ],
      "name": "ownerOf",
      "outputs": [
        {
          "internalType": "address",
          "name": "",
          "type": "address"
        }
      ],
      "stateMutability": "view",
      "type": "function"
    },
    {
      "inputs": [
        {
          "internalType": "string",
          "name": "parcelId",
          "type": "string"
        }
      ],
      "name": "parcelHasToken",
      "outputs": [
        {
          "internalType": "bool",
          "name": "",
          "type": "bool"
        }
      ],
      "stateMutability": "view",
      "type": "function"
    },
    {
      "inputs": [
        {
          "internalType": "string",
          "name": "",
          "type": "string"
        }
      ],
      "name": "parcelToToken",
      "outputs": [
        {
          "internalType": "uint256",
          "name": "",
          "type": "uint256"
        }
      ],
      "stateMutability": "view",
      "type": "function"
    },
    {
      "inputs": [],
      "name": "pause",
      "outputs": [],
      "stateMutability": "nonpayable",
      "type": "function"
    },
    {
      "inputs": [],
      "name": "paused",
      "outputs": [
        {
          "internalType": "bool",
          "name": "",
          "type": "bool"
        }
      ],
      "stateMutability": "view",
      "type": "function"
    },
    {
      "inputs": [],
      "name": "renounceOwnership",
      "outputs": [],
      "stateMutability": "nonpayable",
      "type": "function"
    },
    {
      "inputs": [],
      "name": "roleManager",
      "outputs": [
        {
          "internalType": "contract RoleManager",
          "name": "",
          "type": "address"
        }
      ],
      "stateMutability": "view",
      "type": "function"
    },
    {
      "inputs": [
        {
          "internalType": "address",
          "name": "from",
          "type": "address"
        },
        {
          "internalType": "address",
          "name": "to",
          "type": "address"
        },
        {
          "internalType": "uint256",
          "name": "tokenId",
          "type": "uint256"
        }
      ],
      "name": "safeTransferFrom",
      "outputs": [],
      "stateMutability": "nonpayable",
      "type": "function"
    },
    {
      "inputs": [
        {
          "internalType": "address",
          "name": "from",
          "type": "address"
        },
        {
          "internalType": "address",
          "name": "to",
          "type": "address"
        },
        {
          "internalType": "uint256",
          "name": "tokenId",
          "type": "uint256"
        },
        {
          "internalType": "bytes",
          "name": "data",
          "type": "bytes"
        }
      ],
      "name": "safeTransferFrom",
      "outputs": [],
      "stateMutability": "nonpayable",
      "type": "function"
    },
    {
      "inputs": [
        {
          "internalType": "address",
          "name": "operator",
          "type": "address"
        },
        {
          "internalType": "bool",
          "name": "approved",
          "type": "bool"
        }
      ],
      "name": "setApprovalForAll",
      "outputs": [],
      "stateMutability": "nonpayable",
      "type": "function"
    },
    {
      "inputs": [
        {
          "internalType": "bytes4",
          "name": "interfaceId",
          "type": "bytes4"
        }
      ],
      "name": "supportsInterface",
      "outputs": [
        {
          "internalType": "bool",
          "name": "",
          "type": "bool"
        }
      ],
      "stateMutability": "view",
      "type": "function"
    },
    {
      "inputs": [],
      "name": "symbol",
      "outputs": [
        {
          "internalType": "string",
          "name": "",
          "type": "string"
        }
      ],
      "stateMutability": "view",
      "type": "function"
    },
    {
      "inputs": [
        {
          "internalType": "uint256",
          "name": "",
          "type": "uint256"
        }
      ],
      "name": "tokenMetadata",
      "outputs": [
        {
          "internalType": "string",
          "name": "parcelId",
          "type": "string"
        },
        {
          "internalType": "string",
          "name": "ownerCNIC",
          "type": "string"
        },
        {
          "internalType": "string",
          "name": "ownerName",
          "type": "string"
        },
        {
          "internalType": "string",
          "name": "district",
          "type": "string"
        },
        {
          "internalType": "uint256",
          "name": "areaSqFt",
          "type": "uint256"
        },
        {
          "internalType": "string",
          "name": "landType",
          "type": "string"
        },
        {
          "internalType": "uint256",
          "name": "mintedAt",
          "type": "uint256"
        },
        {
          "internalType": "address",
          "name": "mintedBy",
          "type": "address"
        }
      ],
      "stateMutability": "view",
      "type": "function"
    },
    {
      "inputs": [
        {
          "internalType": "uint256",
          "name": "",
          "type": "uint256"
        }
      ],
      "name": "tokenToParcel",
      "outputs": [
        {
          "internalType": "string",
          "name": "",
          "type": "string"
        }
      ],
      "stateMutability": "view",
      "type": "function"
    },
    {
      "inputs": [
        {
          "internalType": "uint256",
          "name": "tokenId",
          "type": "uint256"
        }
      ],
      "name": "tokenURI",
      "outputs": [
        {
          "internalType": "string",
          "name": "",
          "type": "string"
        }
      ],
      "stateMutability": "view",
      "type": "function"
    },
    {
      "inputs": [],
      "name": "totalBurned",
      "outputs": [
        {
          "internalType": "uint256",
          "name": "",
          "type": "uint256"
        }
      ],
      "stateMutability": "view",
      "type": "function"
    },
    {
      "inputs": [],
      "name": "totalMinted",
      "outputs": [
        {
          "internalType": "uint256",
          "name": "",
          "type": "uint256"
        }
      ],
      "stateMutability": "view",
      "type": "function"
    },
    {
      "inputs": [],
      "name": "totalSupply",
      "outputs": [
        {
          "internalType": "uint256",
          "name": "",
          "type": "uint256"
        }
      ],
      "stateMutability": "view",
      "type": "function"
    },
    {
      "inputs": [
        {
          "internalType": "address",
          "name": "from",
          "type": "address"
        },
        {
          "internalType": "address",
          "name": "to",
          "type": "address"
        },
        {
          "internalType": "uint256",
          "name": "tokenId",
          "type": "uint256"
        }
      ],
      "name": "transferFrom",
      "outputs": [],
      "stateMutability": "nonpayable",
      "type": "function"
    },
    {
      "inputs": [
        {
          "internalType": "string",
          "name": "parcelId",
          "type": "string"
        },
        {
          "internalType": "address",
          "name": "toWallet",
          "type": "address"
        },
        {
          "internalType": "string",
          "name": "newCNIC",
          "type": "string"
        },
        {
          "internalType": "string",
          "name": "newName",
          "type": "string"
        }
      ],
      "name": "transferLandCertificate",
      "outputs": [],
      "stateMutability": "nonpayable",
      "type": "function"
    },
    {
      "inputs": [
        {
          "internalType": "address",
          "name": "newOwner",
          "type": "address"
        }
      ],
      "name": "transferOwnership",
      "outputs": [],
      "stateMutability": "nonpayable",
      "type": "function"
    },
    {
      "inputs": [],
      "name": "unpause",
      "outputs": [],
      "stateMutability": "nonpayable",
      "type": "function"
    }
  ],
  "bytecode": "0x60803462000425576001600160401b0390601f1990601f62002e4a3881900382810185168401868111858210176200042a578492829160405283396020938491810103126200042557516001600160a01b03808216959186900362000425576200006862000440565b91601c83527f42616c6f6368697374616e204c616e6420436572746966696361746500000000858401526200009c62000440565b9360049485815263424c525360e01b8782015284519783891162000410576000988954966001978881811c9116801562000405575b8b821014620003f2579081868493116200039f575b508a908683116001146200033c578c9262000330575b5050600019600383901b1c191690871b1789555b81519384116200031d5785548681811c9116801562000312575b89821014620002ff579081848695949311620002a8575b508892841160011462000247575088926200023b575b5050600019600383901b1c191690831b1782555b3315620002235760075490604051957f8be0079c531659141344cd1fd0a4f28419497f9722a3daafe3b4186f6b6457e0339284169180a36001600160a81b0319163360ff60a01b1916176007556008558315620001e457600980546001600160a01b031916851790556040516129e99081620004618239f35b62461bcd60e51b8352820152601e60248201527f4c616e64546f6b656e3a20696e76616c696420526f6c654d616e616765720000604482015260649150fd5b604051631e4fbdf760e01b8152808401869052602490fd5b01519050388062000157565b868a52888a20879590939291168a5b8a82821062000291575050841162000277575b505050811b0182556200016b565b015160001960f88460031b161c1916905538808062000269565b838501518655899790950194938401930162000256565b9091929350868a52888a208480870160051c8201928b8810620002f5575b9187968a92969594930160051c01915b828110620002e657505062000141565b8c8155879650899101620002d6565b92508192620002c6565b634e487b7160e01b8a526022885260248afd5b90607f16906200012a565b634e487b7160e01b895260418752602489fd5b015190503880620000fc565b908c91858b95168380528d80852094905b8282106200038757505084116200036d575b505050811b01895562000110565b015160001960f88460031b161c191690553880806200035f565b8385015186558d979095019493840193018e6200034d565b9091508b80528a8c208680850160051c8201928d8610620003e8575b918b91869594930160051c01915b828110620003d9575050620000e6565b8e81558594508b9101620003c9565b92508192620003bb565b634e487b7160e01b8c5260228a5260248cfd5b90607f1690620000d1565b604187634e487b7160e01b6000525260246000fd5b600080fd5b634e487b7160e01b600052604160045260246000fd5b60408051919082016001600160401b038111838210176200042a5760405256fe608080604052600436101561001357600080fd5b60003560e01c908162435da51461219f5750806301ffc9a71461211757806306fdde0314612074578063081812fc14612036578063095ea7b314611f4f57806312f0bf1a14611ae657806318160ddd14611aa557806323b872dd14611a8e5780633f4ba83a146119c557806342842e0e1461199757806342966c681461175c5780634858087b146117355780634982cfaa146116e45780635c975abb146116be5780636352211e1461168e5780636914db60146115a75780636de0a3941461157b57806370a0823114611522578063715018a6146114c55780638456cb591461140c5780638da5cb5b146113e35780638ea00818146113a457806395d89b41146112c5578063a22cb46514611220578063a2309ff814611202578063a574cea41461107a578063a688ddb7146103af578063b88d4fde14610343578063c87b56dd146102e6578063d89135cd146102c8578063e985e9c514610272578063f2fde38b146101e45763f4c05f561461018957600080fd5b346101df5760203660031901126101df576004356001600160401b0381116101df5760ff60206101be81933690600401612237565b91908260405193849283378101600d81520301902054166040519015158152f35b600080fd5b346101df5760203660031901126101df576101fd61220b565b61020561247c565b6001600160a01b0390811690811561025957600754826bffffffffffffffffffffffff60a01b821617600755167f8be0079c531659141344cd1fd0a4f28419497f9722a3daafe3b4186f6b6457e0600080a3005b604051631e4fbdf760e01b815260006004820152602490fd5b346101df5760403660031901126101df5761028b61220b565b610293612221565b9060018060a01b03809116600052600560205260406000209116600052602052602060ff604060002054166040519015158152f35b346101df5760003660031901126101df576020601054604051908152f35b346101df5760203660031901126101df5760043561030381612640565b50600052600660205261033f61031c60406000206123d6565b600060405161032a816122b5565b526040519182916020835260208301906121e6565b0390f35b346101df5760803660031901126101df5761035c61220b565b610364612221565b90604435606435926001600160401b0384116101df57366023850112156101df5761039c6103ad943690602481600401359101612327565b926103a88383836124a8565b61267b565b005b346101df576101003660031901126101df576103c961220b565b6024356001600160401b0381116101df576103e8903690600401612237565b6044356001600160401b0381116101df57610407903690600401612237565b906064356001600160401b0381116101df57610427903690600401612237565b906084356001600160401b0381116101df57610447903690600401612237565b92909560c4356001600160401b0381116101df57610469903690600401612237565b6001600160401b0360e435116101df576104883660e435600401612237565b99906104926128cc565b61049a6128ab565b60095460405163a79bb24f60e01b81523360048201526001600160a01b0390911690602081602481855afa90811561104f5760009161105b575b50159081610fe8575b50610fd0576104ed36868e612327565b604051906104fa826122d0565b60088252671c185c98d95b125960c21b60208301525115610fab5750610521368b8b612327565b6040519061052e826122d0565b60098252686f776e6572434e494360b81b60208301525115610fab5750610556368789612327565b60405190610563826122d0565b60098252686f776e65724e616d6560b81b60208301525115610fab575060ff8c86604051918237602081888101600d8152030190205416610f81576105b26001600160a01b038e1615156127fc565b6105bd600a54612848565b9a8b600a558d604051906105d0826122b5565b600082526001600160a01b031615610f68578e6105f48e60018060a01b03926128ef565b16610f4f578e3b610dee575b5061061892939495969798999a9b9c9d503691612327565b8a60005260066020526040600020908051906001600160401b038211610af357819061064e82610648865461239c565b86612857565b602090601f8311600114610d8257600092610d77575b50508160011b916000199060031b1c19161790555b7ff8e1a15aba9398e019f0b49df1a4fde98ee17ae345cb5f6b5e2c27f5033e8ce760206040518c8152a189600052600b6020526040600020966001600160401b038511610af357876106d6866106d08f9b5461239c565b83612857565b6000601f8711600114610d025791610798959493918761078494600091610cf7575b508860011b906000198a60031b1c19161790555b8c604051888c82376020818a8101600c81520301902055604051878b8237602081898101600d815203019020600160ff1982541617905561075b6040519a6107538c612299565b883691612327565b8a52610768368d8d612327565b60208b015261077836898b612327565b60408b01523691612327565b606088015260a43560808801523691612327565b60a08501524260c08501523360e085015286600052600e60205260406000209784518051906001600160401b038211610af35781906107e2828d6107dc815461239c565b90612857565b602090601f8311600114610c8b57600092610c80575b50508160011b916000199060031b1c19161789555b60208501518051906001600160401b038211610af357819061083f828d60016108388183015461239c565b9101612857565b602090601f8311600114610c0e57600092610c03575b50508160011b916000199060031b1c19161760018a01555b60408501518051906001600160401b038211610af3578190610898828d60026108388183015461239c565b602090601f8311600114610b9157600092610b86575b50508160011b916000199060031b1c19161760028a01555b60608501518051906001600160401b038211610af35781906108f1828d60036108388183015461239c565b602090601f8311600114610b1457600092610b09575b50508160011b916000199060031b1c19161760038a01555b608085015160048a015560a0850151948551996001600160401b038b11610af3578a8a9761095f60209d610956600586015461239c565b60058601612857565b8c90601f8311600114610a53577f99f4a5c38b561eee3cdaf03149fbcc93fec59cbfa3631ac87d2f57bb1d38d3ef98969383610a2e999794610a219794600794600092610a48575b50508160011b916000199060031b1c19161760058201555b60c08301516006820155019060e060018060a01b03910151166bffffffffffffffffffffffff60a01b8254161790556109f9600f54612848565b600f55816040519283928337810160008152039020966040519860608a5260608a01916127db565b918783038a8901526127db565b934260408201528033950390a46001600855604051908152f35b0151905038806109a7565b90600584016000528d6000209160005b601f1985168110610ad9575093600184610a2197946007947f99f4a5c38b561eee3cdaf03149fbcc93fec59cbfa3631ac87d2f57bb1d38d3ef9d9b98610a2e9d9b98601f19811610610ac0575b505050811b0160058201556109bf565b015160001960f88460031b161c19169055388080610ab0565b8282015184558e9b50600190930192918f01918f01610a63565b634e487b7160e01b600052604160045260246000fd5b015190508b80610907565b925060038c016000526020600020906000935b601f1984168510610b6b576001945083601f19811610610b52575b505050811b0160038a015561091f565b015160001960f88460031b161c191690558b8080610b42565b81810151835560209485019460019093019290910190610b27565b015190508b806108ae565b925060028c016000526020600020906000935b601f1984168510610be8576001945083601f19811610610bcf575b505050811b0160028a01556108c6565b015160001960f88460031b161c191690558b8080610bbf565b81810151835560209485019460019093019290910190610ba4565b015190508b80610855565b925060018c016000526020600020906000935b601f1984168510610c65576001945083601f19811610610c4c575b505050811b0160018a015561086d565b015160001960f88460031b161c191690558b8080610c3c565b81810151835560209485019460019093019290910190610c21565b015190508b806107f8565b92508b6000526020600020906000935b601f1984168510610cdc576001945083601f19811610610cc3575b505050811b01895561080d565b015160001960f88460031b161c191690558b8080610cb6565b81810151835560209485019460019093019290910190610c9b565b90508b0135386106f8565b8160005260206000209060005b601f1989168110610d5d57509161078493916107989796959389601f19811610610d43575b5050600188811b01905561070c565b8c013560001960038b901b60f8161c191690558f80610d34565b9a81013582558e9a60019092019160209182019101610d0f565b015190508e80610664565b9250836000526020600020906000935b601f1984168510610dd3576001945083601f19811610610dba575b505050811b019055610679565b015160001960f88460031b161c191690558e8080610dad565b81810151835560209485019460019093019290910190610d92565b60208f91610e2e928f6000604051809681958294630a85bd0160e11b845233600485015284602485015260448401526080606484015260848301906121e6565b03926001600160a01b03165af160009181610f0a575b50610eac578e3d15610ea4573d90610e5b8261230c565b91610e6960405193846122eb565b82523d6000602084013e5b81519182610e9d57604051633250574960e11b81526001600160a01b0383166004820152602490fd5b9050602001fd5b606090610e74565b630a85bd019d9e9192939495969798999a9b9c9d60e11b9063ffffffff60e01b1603610ee857508c9b9a99989796959493929190610618610600565b604051633250574960e11b81526001600160a01b039091166004820152602490fd5b9091506020813d602011610f47575b81610f26602093836122eb565b810103126101df57516001600160e01b0319811681036101df579038610e44565b3d9150610f19565b6040516339e3563760e11b815260006004820152602490fd5b604051633250574960e11b815260006004820152602490fd5b8b85610fa760405192839263553f459960e11b84526020600485015260248401916127db565b0390fd5b6040516318a996bb60e21b815260206004820152908190610fa79060248301906121e6565b604051634a0bfec160e01b8152336004820152602490fd5b6040516311f0b33d60e31b81523360048201529150602090829060249082905afa90811561104f57600091611020575b50158e6104dd565b611042915060203d602011611048575b61103a81836122eb565b8101906127c3565b8e611018565b503d611030565b6040513d6000823e3d90fd5b611074915060203d6020116110485761103a81836122eb565b8f6104d4565b346101df576020806003193601126101df576040519061109982612299565b6060918281528282820152826040820152828082015260808101600090528260a082015260c081016000905260e00160009052600435600052600e81526040600020604051916110e883612299565b6110f1826123d6565b83526110ff600183016123d6565b83820190815291611112600282016123d6565b6040850190815294611126600383016123d6565b9381860194855260048301546080870190815260058401611146906123d6565b60a0880190815260068501549660c08901978852600160a01b60019003600781970154169460e08a019586526040519a8b9a898c5251610100809a8d01526101208c01611192916121e6565b9551601f198c8803810160408e0152966111ab916121e6565b905191868c830301908c01526111c0916121e6565b905190848a82030160808b01526111d6916121e6565b915160a089015251918782030160c08801526111f1916121e6565b935160e08601525116908301520390f35b346101df5760003660031901126101df576020600f54604051908152f35b346101df5760403660031901126101df5761123961220b565b602435908115158092036101df576001600160a01b03169081156112ac57336000526005602052604060002082600052602052604060002060ff1981541660ff83161790556040519081527f17307eab39ab6107e8899845ad3d59bd9653f200f220920489ca2b5937696c3160203392a3005b604051630b61174360e31b815260048101839052602490fd5b346101df5760003660031901126101df57604051600060018054906112e98261239c565b8085529181811690811561137d5750600114611324575b61033f84611310818603826122eb565b6040519182916020835260208301906121e6565b600081815292507fb10e2d527612073b26eecdfd717e6a320cf44b4afac2b0732d9fcbe2b7fa0cf65b82841061136557505050810160200161131082611300565b8054602085870181019190915290930192810161134d565b60ff191660208087019190915292151560051b850190920192506113109150839050611300565b346101df57602060ff6113cd826113ba3661235e565b81604051938285809451938492016121c3565b8101600d81520301902054166040519015158152f35b346101df5760003660031901126101df576007546040516001600160a01b039091168152602090f35b346101df5760003660031901126101df57600954604051630935e01b60e21b815233600482015290602090829060249082906001600160a01b03165afa90811561104f576000916114a7575b5015610fd0576114666128ab565b6007805460ff60a01b1916600160a01b1790556040513381527f62e78cea01bee320cd4e420270b5ea74000d11b0c9f74754ebdbfc544b05a25890602090a1005b6114bf915060203d81116110485761103a81836122eb565b81611458565b346101df5760003660031901126101df576114de61247c565b600780546001600160a01b031981169091556000906001600160a01b03167f8be0079c531659141344cd1fd0a4f28419497f9722a3daafe3b4186f6b6457e08280a3005b346101df5760203660031901126101df576001600160a01b0361154361220b565b1680156115625760005260036020526020604060002054604051908152f35b6040516322718ad960e21b815260006004820152602490fd5b346101df5760203660031901126101df57600435600052600b60205261033f61131060406000206123d6565b346101df5760203660031901126101df57600435600052600e60205261164260406000206115d4816123d6565b906115e1600182016123d6565b61167f6115f0600284016123d6565b6115fc600385016123d6565b9061166c60048601549261165e611615600589016123d6565b9361165060068a015499600760018060a01b0391015416986040519c8d9c8d6101009081815201906121e6565b8c810360208e0152906121e6565b908a820360408c01526121e6565b9088820360608a01526121e6565b91608087015285820360a08701526121e6565b9160c084015260e08301520390f35b346101df5760203660031901126101df5760206116ac600435612640565b6040516001600160a01b039091168152f35b346101df5760003660031901126101df57602060ff60075460a01c166040519015158152f35b346101df5760203660031901126101df576004356001600160401b0381116101df57602061171781923690600401612237565b91908260405193849283378101600c81520301902054604051908152f35b346101df576020611749816113ba3661235e565b8101600c81520301902054604051908152f35b346101df576020806003193601126101df5760043580600052600b825261178660406000206123d6565b61178e6128ab565b600082815260028452604090205482906001600160a01b039081169033151590816118e8575b5050806000916118b5575b828252600286526040822080546001600160a01b03191690557fddf252ad1be2c89b69c2b068fc378daa952ba7f163c4a11628f55a4df523b3ef8280a48051801515908161188c575b5061180f57005b61187d7f7b1b15d9a5f3681a2f47be060fdb272562fd08503814cd295a9fb1954ab1e0c3916040519080519186818184019461184c8183886121c3565b8101600d81520301902060ff198154169055611869601054612848565b6010556040519283928392519283916121c3565b810103902092604051428152a3005b60ff915084604051826118a38294838589016121c3565b8101600d815203019020541684611808565b600083815260046020526040902080546001600160a01b03191690558082526003865260408220821981540190556117bf565b919250908161193f575b501561190157829085806117b4565b151590506119215760249060405190637e27328960e01b82526004820152fd5b6044906040519063177e802f60e01b82523360048301526024820152fd5b33831491508115611973575b8115611959575b50856118f2565b905083600052600485523390604060002054161485611952565b90508160005260058552604060002033600052855260ff604060002054169061194b565b346101df576103ad6119a836612264565b90604051926119b6846122b5565b600084526103a88383836124a8565b346101df5760003660031901126101df57600954604051630935e01b60e21b815233600482015290602090829060249082906001600160a01b03165afa90811561104f57600091611a70575b5015610fd05760075460ff8160a01c1615611a5e5760ff60a01b19166007556040513381527f5db9ee0a495bf2e6ff9c91a7834c1ba4fdd244a5e8aa4e537bd38aeae4b073aa90602090a1005b604051638dfc202b60e01b8152600490fd5b611a88915060203d81116110485761103a81836122eb565b81611a11565b346101df576103ad611a9f36612264565b916124a8565b346101df5760003660031901126101df57600f546010548103908111611ad057602090604051908152f35b634e487b7160e01b600052601160045260246000fd5b346101df5760803660031901126101df576004356001600160401b0381116101df57611b16903690600401612237565b611b1e612221565b916044356001600160401b0381116101df57611b3e903690600401612237565b9290916064356001600160401b0381116101df57611b60903690600401612237565b611b686128cc565b611b706128ab565b60095460405163a79bb24f60e01b81523360048201526001600160a01b0390911690602081602481855afa90811561104f57600091611f30575b50159081611ed9575b50610fd05760ff60405185858237602081878101600d815203019020541615611eb6576001600160a01b0387161594611bec86156127fc565b60405185858237602081878101600c8152030190205496611c0c88612640565b96610f6857611c1b888a6128ef565b6001600160a01b038116611c4257604051637e27328960e01b8152600481018a9052602490fd5b6001600160a01b0388811690821603611e84575087600052600e6020526001604060002001916001600160401b038211610af3578190611c8682610648865461239c565b600090601f8311600114611e1c57600092611e11575b50508160011b916000199060031b1c19161790555b85600052600e6020526002604060002001916001600160401b038211610af357611ce582611cdf855461239c565b85612857565b600090601f8311600114611d8257918060609694927fffd85c1a455199fa5e72fa566b7ab67629a6e16ad38f496c4e596042aa8e39fa989694600092611d77575b50508160011b916000199060031b1c19161790555b816040519283928337810160008152039020946040519160018060a01b0316825260018060a01b03166020820152426040820152a36001600855005b013590508a80611d26565b601f198316918460005260206000209260005b818110611df957509260019285927fffd85c1a455199fa5e72fa566b7ab67629a6e16ad38f496c4e596042aa8e39fa9a989660609a989610611ddf575b505050811b019055611d3b565b0135600019600384901b60f8161c191690558a8080611dd2565b91936020600181928787013581550195019201611d95565b013590508a80611c9c565b600085815260208120909450915b601f1984168510611e6c576001945083601f19811610611e52575b505050811b019055611cb1565b0135600019600384901b60f8161c191690558a8080611e45565b81810135835560209485019460019093019201611e2a565b6040516364283d7b60e01b81526001600160a01b038981166004830152602482018b9052919091166044820152606490fd5b604051636cf15a3d60e11b81526020600482015280610fa76024820187876127db565b6040516311f0b33d60e31b81523360048201529150602090829060249082905afa90811561104f57600091611f11575b501588611bb3565b611f2a915060203d6020116110485761103a81836122eb565b88611f09565b611f49915060203d6020116110485761103a81836122eb565b89611baa565b346101df5760403660031901126101df57611f6861220b565b602435611f7481612640565b33151580612023575b80611ff6575b611fde576001600160a01b039283169282918491167f8c5be1e5ebec7d5bd14f71427d1e84f3dd0314c0f7b2291e5b200ac8c7c3b925600080a4600090815260046020526040902080546001600160a01b0319169091179055005b60405163a9fbf51f60e01b8152336004820152602490fd5b5060018060a01b038116600052600560205260406000203360005260205260ff6040600020541615611f83565b506001600160a01b038116331415611f7d565b346101df5760203660031901126101df5760043561205381612640565b506000526004602052602060018060a01b0360406000205416604051908152f35b346101df5760003660031901126101df57604051600080546120958161239c565b8084529060019081811690811561137d57506001146120be5761033f84611310818603826122eb565b600080805292507f290decd9548b62a8d60345a988386fc84ba6bc95484008f6362f93160ef3e5635b8284106120ff57505050810160200161131082611300565b805460208587018101919091529093019281016120e7565b346101df5760203660031901126101df5760043563ffffffff60e01b81168091036101df57602090632483248360e11b811490811561215c575b506040519015158152f35b6380ac58cd60e01b81149150811561218e575b811561217d575b5082612151565b6301ffc9a760e01b14905082612176565b635b5e139f60e01b8114915061216f565b346101df5760003660031901126101df576009546001600160a01b03168152602090f35b60005b8381106121d65750506000910152565b81810151838201526020016121c6565b906020916121ff815180928185528580860191016121c3565b601f01601f1916010190565b600435906001600160a01b03821682036101df57565b602435906001600160a01b03821682036101df57565b9181601f840112156101df578235916001600160401b0383116101df57602083818601950101116101df57565b60609060031901126101df576001600160a01b039060043582811681036101df579160243590811681036101df579060443590565b61010081019081106001600160401b03821117610af357604052565b602081019081106001600160401b03821117610af357604052565b604081019081106001600160401b03821117610af357604052565b90601f801991011681019081106001600160401b03821117610af357604052565b6001600160401b038111610af357601f01601f191660200190565b9291926123338261230c565b9161234160405193846122eb565b8294818452818301116101df578281602093846000960137010152565b60206003198201126101df57600435906001600160401b0382116101df57806023830112156101df5781602461239993600401359101612327565b90565b90600182811c921680156123cc575b60208310146123b657565b634e487b7160e01b600052602260045260246000fd5b91607f16916123ab565b90604051918260008254926123ea8461239c565b9081845260019485811690816000146124595750600114612416575b5050612414925003836122eb565b565b9093915060005260209081600020936000915b81831061244157505061241493508201013880612406565b85548884018501529485019487945091830191612429565b91505061241494506020925060ff191682840152151560051b8201013880612406565b6007546001600160a01b0316330361249057565b60405163118cdaa760e01b8152336004820152602490fd5b906001600160a01b039081168015610f68576124c26128ab565b6000918483528460209260028452604093838587205416958691331515806125aa575b509060027fddf252ad1be2c89b69c2b068fc378daa952ba7f163c4a11628f55a4df523b3ef9284612577575b85835260038152888320805460010190558683525286812080546001600160a01b0319168517905580a4831682036125495750505050565b516364283d7b60e01b81526001600160a01b0392831660048201526024810193909352166044820152606490fd5b600087815260046020526040902080546001600160a01b0319169055848352600381528883208054600019019055612511565b919394509150806125ff575b156125c6578792918691386124e5565b8488876125e3576024915190637e27328960e01b82526004820152fd5b604491519063177e802f60e01b82523360048301526024820152fd5b503386148015612624575b806125b657508782526004815233848684205416146125b6565b5085825260058152848220338352815260ff858320541661260a565b6000818152600260205260409020546001600160a01b0316908115612663575090565b60249060405190637e27328960e01b82526004820152fd5b813b612688575b50505050565b604051630a85bd0160e11b8082523360048301526001600160a01b039283166024830152604482019490945260806064820152602095929091169390929083906126d69060848301906121e6565b039285816000958187895af184918161277f575b5061274a575050503d600014612742573d6127048161230c565b9061271260405192836122eb565b81528091843d92013e5b8051928361273d57604051633250574960e11b815260048101849052602490fd5b019050fd5b50606061271c565b919450915063ffffffff60e01b1603612767575038808080612682565b60249060405190633250574960e11b82526004820152fd5b9091508681813d83116127bc575b61279781836122eb565b810103126127b857516001600160e01b0319811681036127b85790386126ea565b8480fd5b503d61278d565b908160209103126101df575180151581036101df5790565b908060209392818452848401376000828201840152601f01601f1916010190565b1561280357565b60405162461bcd60e51b815260206004820152601960248201527f4c616e64546f6b656e3a20696e76616c69642077616c6c6574000000000000006044820152606490fd5b6000198114611ad05760010190565b90601f811161286557505050565b600091825260208220906020601f850160051c830194106128a1575b601f0160051c01915b82811061289657505050565b81815560010161288a565b9092508290612881565b60ff60075460a01c166128ba57565b60405163d93c066560e01b8152600490fd5b6002600854146128dd576002600855565b604051633ee5aeb560e01b8152600490fd5b906128f86128ab565b6000818152600260205260408120546001600160a01b039081169384917fddf252ad1be2c89b69c2b068fc378daa952ba7f163c4a11628f55a4df523b3ef918361297e575b169283612966575b84815260026020526040812080546001600160a01b0319168517905580a490565b83815260036020526040812060018154019055612945565b600086815260046020526040902080546001600160a01b0319169055838552600360205260408520805460001901905561293d56fea26469706673582212204a20869c6b3f1536ceb98715ff78c1704dbd238f153c1352040006ec332aa24f64736f6c63430008140033",
  "linkReferences": {},
  "deployedLinkReferences": {}
}